{
  "contractName": "Banking",
  "abi": [
    {
      "anonymous": false,
      "inputs": [
        {
          "indexed": true,
          "internalType": "address",
          "name": "owner",
          "type": "address"
        },
        {
          "indexed": false,
          "internalType": "string",
          "name": "accountType",
          "type": "string"
        },
        {
          "indexed": false,
          "internalType": "uint256",
          "name": "timestamp",
          "type": "uint256"
        }
      ],
      "name": "AccountCreated",
      "type": "event"
    },
    {
      "anonymous": false,
      "inputs": [
        {
          "indexed": true,
          "internalType": "address",
          "name": "to",
          "type": "address"
        },
        {
          "indexed": false,
          "internalType": "uint256",
          "name": "amount",
          "type": "uint256"
        },
        {
          "indexed": false,
          "internalType": "uint256",
          "name": "timestamp",
          "type": "uint256"
        }
      ],
      "name": "DepositMade",
      "type": "event"
    },
    {
      "anonymous": false,
      "inputs": [
        {
          "indexed": true,
          "internalType": "address",
          "name": "from",
          "type": "address"
        },
        {
          "indexed": true,
          "internalType": "address",
          "name": "to",
          "type": "address"
        },
        {
          "indexed": false,
          "internalType": "uint256",
          "name": "amount",
          "type": "uint256"
        },
        {
          "indexed": false,
          "internalType": "uint256",
          "name": "timestamp",
          "type": "uint256"
        }
      ],
      "name": "TransferMade",
      "type": "event"
    },
    {
      "anonymous": false,
      "inputs": [
        {
          "indexed": true,
          "internalType": "address",
          "name": "from",
          "type": "address"
        },
        {
          "indexed": false,
          "internalType": "uint256",
          "name": "amount",
          "type": "uint256"
        },
        {
          "indexed": false,
          "internalType": "uint256",
          "name": "timestamp",
          "type": "uint256"
        }
      ],
      "name": "WithdrawalMade",
      "type": "event"
    },
    {
      "inputs": [
        {
          "internalType": "address",
          "name": "",
          "type": "address"
        }
      ],
      "name": "accounts",
      "outputs": [
        {
          "internalType": "string",
          "name": "name",
          "type": "string"
        },
        {
          "internalType": "uint256",
          "name": "balance",
          "type": "uint256"
        },
        {
          "internalType": "bool",
          "name": "exists",
          "type": "bool"
        },
        {
          "internalType": "string",
          "name": "accountType",
          "type": "string"
        },
        {
          "internalType": "uint256",
          "name": "createdAt",
          "type": "uint256"
        }
      ],
      "stateMutability": "view",
      "type": "function",
      "constant": true
    },
    {
      "inputs": [
        {
          "internalType": "address",
          "name": "",
          "type": "address"
        }
      ],
      "name": "blacklistedAddresses",
      "outputs": [
        {
          "internalType": "bool",
          "name": "",
          "type": "bool"
        }
      ],
      "stateMutability": "view",
      "type": "function",
      "constant": true
    },
    {
      "inputs": [
        {
          "internalType": "string",
          "name": "_accountType",
          "type": "string"
        },
        {
          "internalType": "string",
          "name": "_name",
          "type": "string"
        }
      ],
      "name": "createAccount",
      "outputs": [],
      "stateMutability": "nonpayable",
      "type": "function"
    },
    {
      "inputs": [
        {
          "internalType": "uint256",
          "name": "_amount",
          "type": "uint256"
        }
      ],
      "name": "deposit",
      "outputs": [],
      "stateMutability": "nonpayable",
      "type": "function"
    },
    {
      "inputs": [
        {
          "internalType": "uint256",
          "name": "_amount",
          "type": "uint256"
        }
      ],
      "name": "withdraw",
      "outputs": [],
      "stateMutability": "nonpayable",
      "type": "function"
    },
    {
      "inputs": [
        {
          "internalType": "address",
          "name": "_to",
          "type": "address"
        },
        {
          "internalType": "uint256",
          "name": "_amount",
          "type": "uint256"
        }
      ],
      "name": "transfer",
      "outputs": [],
      "stateMutability": "nonpayable",
      "type": "function"
    },
    {
      "inputs": [],
      "name": "getBalance",
      "outputs": [
        {
          "internalType": "uint256",
          "name": "",
          "type": "uint256"
        }
      ],
      "stateMutability": "view",
      "type": "function",
      "constant": true
    },
    {
      "inputs": [],
      "name": "getAccount",
      "outputs": [
        {
          "internalType": "string",
          "name": "name",
          "type": "string"
        },
        {
          "internalType": "uint256",
          "name": "balance",
          "type": "uint256"
        },
        {
          "internalType": "string",
          "name": "accountType",
          "type": "string"
        },
        {
          "internalType": "uint256",
          "name": "createdAt",
          "type": "uint256"
        }
      ],
      "stateMutability": "view",
      "type": "function",
      "constant": true
    }
  ],
  "bytecode": "0x608060405234801561001057600080fd5b50611bf2806100206000396000f3fe608060405234801561001057600080fd5b50600436106100885760003560e01c8063a9059cbb1161005b578063a9059cbb14610117578063b6b55f2514610133578063d5749d421461014f578063db613e811461017f57610088565b806312065fe01461008d57806319289287146100ab5780632e1a7d4d146100c75780635e5c06e2146100e3575b600080fd5b6100956101a0565b6040516100a291906118e9565b60405180910390f35b6100c560048036038101906100c0919061132c565b610277565b005b6100e160048036038101906100dc9190611398565b6104e8565b005b6100fd60048036038101906100f891906112c7565b610777565b60405161010e959493929190611715565b60405180910390f35b610131600480360381019061012c91906112f0565b6108ca565b005b61014d60048036038101906101489190611398565b610d56565b005b610169600480360381019061016491906112c7565b610f61565b60405161017691906116ca565b60405180910390f35b610187610f81565b6040516101979493929190611776565b60405180910390f35b60008060003373ffffffffffffffffffffffffffffffffffffffff1673ffffffffffffffffffffffffffffffffffffffff16815260200190815260200160002060020160009054906101000a900460ff16610230576040517f08c379a000000000000000000000000000000000000000000000000000000000815260040161022790611869565b60405180910390fd5b6000803373ffffffffffffffffffffffffffffffffffffffff1673ffffffffffffffffffffffffffffffffffffffff16815260200190815260200160002060010154905090565b33600160008273ffffffffffffffffffffffffffffffffffffffff1673ffffffffffffffffffffffffffffffffffffffff16815260200190815260200160002060009054906101000a900460ff1615610305576040517f08c379a00000000000000000000000000000000000000000000000000000000081526004016102fc90611889565b60405180910390fd5b6000803373ffffffffffffffffffffffffffffffffffffffff1673ffffffffffffffffffffffffffffffffffffffff16815260200190815260200160002060020160009054906101000a900460ff1615610394576040517f08c379a000000000000000000000000000000000000000000000000000000000815260040161038b906118c9565b60405180910390fd5b60008060003373ffffffffffffffffffffffffffffffffffffffff1673ffffffffffffffffffffffffffffffffffffffff168152602001908152602001600020905060018160020160006101000a81548160ff0219169083151502179055506000816001018190555083816003019080519060200190610415929190611192565b508281600001908051906020019061042e929190611192565b5042816004018190555060018160050160003373ffffffffffffffffffffffffffffffffffffffff1673ffffffffffffffffffffffffffffffffffffffff16815260200190815260200160002060006101000a81548160ff0219169083151502179055503373ffffffffffffffffffffffffffffffffffffffff167f8ccbea1c9cdbc2ed318127a183d42dcc41a4938fa10378e7c9a3ada9d34a852785426040516104da9291906116e5565b60405180910390a250505050565b6000803373ffffffffffffffffffffffffffffffffffffffff1673ffffffffffffffffffffffffffffffffffffffff16815260200190815260200160002060020160009054906101000a900460ff16610576576040517f08c379a000000000000000000000000000000000000000000000000000000000815260040161056d90611869565b60405180910390fd5b33600160008273ffffffffffffffffffffffffffffffffffffffff1673ffffffffffffffffffffffffffffffffffffffff16815260200190815260200160002060009054906101000a900460ff1615610604576040517f08c379a00000000000000000000000000000000000000000000000000000000081526004016105fb90611889565b60405180910390fd5b60008211610647576040517f08c379a000000000000000000000000000000000000000000000000000000000815260040161063e90611829565b60405180910390fd5b816000803373ffffffffffffffffffffffffffffffffffffffff1673ffffffffffffffffffffffffffffffffffffffff1681526020019081526020016000206001015410156106cb576040517f08c379a00000000000000000000000000000000000000000000000000000000081526004016106c2906117e9565b60405180910390fd5b816000803373ffffffffffffffffffffffffffffffffffffffff1673ffffffffffffffffffffffffffffffffffffffff168152602001908152602001600020600101600082825461071c9190611a00565b925050819055503373ffffffffffffffffffffffffffffffffffffffff167f2d4d49c3e017b8235c908cbaa83a2431a08f3b950712696ece2088964fd399f0834260405161076b929190611904565b60405180910390a25050565b600060205280600052604060002060009150905080600001805461079a90611abe565b80601f01602080910402602001604051908101604052809291908181526020018280546107c690611abe565b80156108135780601f106107e857610100808354040283529160200191610813565b820191906000526020600020905b8154815290600101906020018083116107f657829003601f168201915b5050505050908060010154908060020160009054906101000a900460ff169080600301805461084190611abe565b80601f016020809104026020016040519081016040528092919081815260200182805461086d90611abe565b80156108ba5780601f1061088f576101008083540402835291602001916108ba565b820191906000526020600020905b81548152906001019060200180831161089d57829003601f168201915b5050505050908060040154905085565b6000803373ffffffffffffffffffffffffffffffffffffffff1673ffffffffffffffffffffffffffffffffffffffff16815260200190815260200160002060020160009054906101000a900460ff16610958576040517f08c379a000000000000000000000000000000000000000000000000000000000815260040161094f90611869565b60405180910390fd5b33600160008273ffffffffffffffffffffffffffffffffffffffff1673ffffffffffffffffffffffffffffffffffffffff16815260200190815260200160002060009054906101000a900460ff16156109e6576040517f08c379a00000000000000000000000000000000000000000000000000000000081526004016109dd90611889565b60405180910390fd5b82600160008273ffffffffffffffffffffffffffffffffffffffff1673ffffffffffffffffffffffffffffffffffffffff16815260200190815260200160002060009054906101000a900460ff1615610a74576040517f08c379a0000000000000000000000000000000000000000000000000000000008152600401610a6b90611889565b60405180910390fd5b600073ffffffffffffffffffffffffffffffffffffffff168473ffffffffffffffffffffffffffffffffffffffff161415610ae4576040517f08c379a0000000000000000000000000000000000000000000000000000000008152600401610adb90611809565b60405180910390fd5b6000808573ffffffffffffffffffffffffffffffffffffffff1673ffffffffffffffffffffffffffffffffffffffff16815260200190815260200160002060020160009054906101000a900460ff16610b72576040517f08c379a0000000000000000000000000000000000000000000000000000000008152600401610b6990611849565b60405180910390fd5b60008311610bb5576040517f08c379a0000000000000000000000000000000000000000000000000000000008152600401610bac906118a9565b60405180910390fd5b826000803373ffffffffffffffffffffffffffffffffffffffff1673ffffffffffffffffffffffffffffffffffffffff168152602001908152602001600020600101541015610c39576040517f08c379a0000000000000000000000000000000000000000000000000000000008152600401610c30906117e9565b60405180910390fd5b826000803373ffffffffffffffffffffffffffffffffffffffff1673ffffffffffffffffffffffffffffffffffffffff1681526020019081526020016000206001016000828254610c8a9190611a00565b92505081905550826000808673ffffffffffffffffffffffffffffffffffffffff1673ffffffffffffffffffffffffffffffffffffffff1681526020019081526020016000206001016000828254610ce291906119aa565b925050819055508373ffffffffffffffffffffffffffffffffffffffff163373ffffffffffffffffffffffffffffffffffffffff167ff53dd3be3bceee510e25e5357bab0a7d8a4ba03044a6e6bd626643a6aeeb502a8542604051610d48929190611904565b60405180910390a350505050565b6000803373ffffffffffffffffffffffffffffffffffffffff1673ffffffffffffffffffffffffffffffffffffffff16815260200190815260200160002060020160009054906101000a900460ff16610de4576040517f08c379a0000000000000000000000000000000000000000000000000000000008152600401610ddb90611869565b60405180910390fd5b33600160008273ffffffffffffffffffffffffffffffffffffffff1673ffffffffffffffffffffffffffffffffffffffff16815260200190815260200160002060009054906101000a900460ff1615610e72576040517f08c379a0000000000000000000000000000000000000000000000000000000008152600401610e6990611889565b60405180910390fd5b60008211610eb5576040517f08c379a0000000000000000000000000000000000000000000000000000000008152600401610eac906117c9565b60405180910390fd5b816000803373ffffffffffffffffffffffffffffffffffffffff1673ffffffffffffffffffffffffffffffffffffffff1681526020019081526020016000206001016000828254610f0691906119aa565b925050819055503373ffffffffffffffffffffffffffffffffffffffff167f0b05f0d1cd0819f155b8a61f60baf7767c1ee49d04aeaab701df236140eb93f98342604051610f55929190611904565b60405180910390a25050565b60016020528060005260406000206000915054906101000a900460ff1681565b60606000606060008060003373ffffffffffffffffffffffffffffffffffffffff1673ffffffffffffffffffffffffffffffffffffffff16815260200190815260200160002060020160009054906101000a900460ff16611017576040517f08c379a000000000000000000000000000000000000000000000000000000000815260040161100e90611869565b60405180910390fd5b60008060003373ffffffffffffffffffffffffffffffffffffffff1673ffffffffffffffffffffffffffffffffffffffff168152602001908152602001600020905080600001816001015482600301836004015483805461107790611abe565b80601f01602080910402602001604051908101604052809291908181526020018280546110a390611abe565b80156110f05780601f106110c5576101008083540402835291602001916110f0565b820191906000526020600020905b8154815290600101906020018083116110d357829003601f168201915b5050505050935081805461110390611abe565b80601f016020809104026020016040519081016040528092919081815260200182805461112f90611abe565b801561117c5780601f106111515761010080835404028352916020019161117c565b820191906000526020600020905b81548152906001019060200180831161115f57829003601f168201915b5050505050915094509450945094505090919293565b82805461119e90611abe565b90600052602060002090601f0160209004810192826111c05760008555611207565b82601f106111d957805160ff1916838001178555611207565b82800160010185558215611207579182015b828111156112065782518255916020019190600101906111eb565b5b5090506112149190611218565b5090565b5b80821115611231576000816000905550600101611219565b5090565b60006112486112438461195e565b61192d565b90508281526020810184848401111561126057600080fd5b61126b848285611a7c565b509392505050565b60008135905061128281611b8e565b92915050565b600082601f83011261129957600080fd5b81356112a9848260208601611235565b91505092915050565b6000813590506112c181611ba5565b92915050565b6000602082840312156112d957600080fd5b60006112e784828501611273565b91505092915050565b6000806040838503121561130357600080fd5b600061131185828601611273565b9250506020611322858286016112b2565b9150509250929050565b6000806040838503121561133f57600080fd5b600083013567ffffffffffffffff81111561135957600080fd5b61136585828601611288565b925050602083013567ffffffffffffffff81111561138257600080fd5b61138e85828601611288565b9150509250929050565b6000602082840312156113aa57600080fd5b60006113b8848285016112b2565b91505092915050565b6113ca81611a46565b82525050565b60006113db8261198e565b6113e58185611999565b93506113f5818560208601611a8b565b6113fe81611b7d565b840191505092915050565b6000611416602583611999565b91507f4465706f73697420616d6f756e74206d7573742062652067726561746572207460008301527f68616e20300000000000000000000000000000000000000000000000000000006020830152604082019050919050565b600061147c601483611999565b91507f496e73756666696369656e742062616c616e63650000000000000000000000006000830152602082019050919050565b60006114bc601983611999565b91507f496e76616c696420726563697069656e742061646472657373000000000000006000830152602082019050919050565b60006114fc602883611999565b91507f5769746864726177616c20616d6f756e74206d7573742062652067726561746560008301527f72207468616e20300000000000000000000000000000000000000000000000006020830152604082019050919050565b6000611562602083611999565b91507f526563697069656e74206163636f756e7420646f6573206e6f742065786973746000830152602082019050919050565b60006115a2601683611999565b91507f4163636f756e7420646f6573206e6f74206578697374000000000000000000006000830152602082019050919050565b60006115e2601683611999565b91507f4164647265737320697320626c61636b6c6973746564000000000000000000006000830152602082019050919050565b6000611622602683611999565b91507f5472616e7366657220616d6f756e74206d75737420626520677265617465722060008301527f7468616e203000000000000000000000000000000000000000000000000000006020830152604082019050919050565b6000611688601683611999565b91507f4163636f756e7420616c726561647920657869737473000000000000000000006000830152602082019050919050565b6116c481611a72565b82525050565b60006020820190506116df60008301846113c1565b92915050565b600060408201905081810360008301526116ff81856113d0565b905061170e60208301846116bb565b9392505050565b600060a082019050818103600083015261172f81886113d0565b905061173e60208301876116bb565b61174b60408301866113c1565b818103606083015261175d81856113d0565b905061176c60808301846116bb565b9695505050505050565b6000608082019050818103600083015261179081876113d0565b905061179f60208301866116bb565b81810360408301526117b181856113d0565b90506117c060608301846116bb565b95945050505050565b600060208201905081810360008301526117e281611409565b9050919050565b600060208201905081810360008301526118028161146f565b9050919050565b60006020820190508181036000830152611822816114af565b9050919050565b60006020820190508181036000830152611842816114ef565b9050919050565b6000602082019050818103600083015261186281611555565b9050919050565b6000602082019050818103600083015261188281611595565b9050919050565b600060208201905081810360008301526118a2816115d5565b9050919050565b600060208201905081810360008301526118c281611615565b9050919050565b600060208201905081810360008301526118e28161167b565b9050919050565b60006020820190506118fe60008301846116bb565b92915050565b600060408201905061191960008301856116bb565b61192660208301846116bb565b9392505050565b6000604051905081810181811067ffffffffffffffff8211171561195457611953611b4e565b5b8060405250919050565b600067ffffffffffffffff82111561197957611978611b4e565b5b601f19601f8301169050602081019050919050565b600081519050919050565b600082825260208201905092915050565b60006119b582611a72565b91506119c083611a72565b9250827fffffffffffffffffffffffffffffffffffffffffffffffffffffffffffffffff038211156119f5576119f4611af0565b5b828201905092915050565b6000611a0b82611a72565b9150611a1683611a72565b925082821015611a2957611a28611af0565b5b828203905092915050565b6000611a3f82611a52565b9050919050565b60008115159050919050565b600073ffffffffffffffffffffffffffffffffffffffff82169050919050565b6000819050919050565b82818337600083830152505050565b60005b83811015611aa9578082015181840152602081019050611a8e565b83811115611ab8576000848401525b50505050565b60006002820490506001821680611ad657607f821691505b60208210811415611aea57611ae9611b1f565b5b50919050565b7f4e487b7100000000000000000000000000000000000000000000000000000000600052601160045260246000fd5b7f4e487b7100000000000000000000000000000000000000000000000000000000600052602260045260246000fd5b7f4e487b7100000000000000000000000000000000000000000000000000000000600052604160045260246000fd5b6000601f19601f8301169050919050565b611b9781611a34565b8114611ba257600080fd5b50565b611bae81611a72565b8114611bb957600080fd5b5056fea2646970667358221220f19e675178c8fbe3b77629cd3023a3b9fa5b1f7481b4606d56a360b7def9600564736f6c63430008000033",
  "immutableReferences": {},
  "source": "// SPDX-License-Identifier: MIT\r\npragma solidity ^0.8.0;\r\n\r\ncontract Banking {\r\n    struct Account {\r\n        string name;\r\n        uint256 balance;\r\n        bool exists;\r\n        string accountType;\r\n        uint256 createdAt;\r\n        mapping(address => bool) authorizedUsers;\r\n    }\r\n    \r\n    mapping(address => Account) public accounts;\r\n    mapping(address => bool) public blacklistedAddresses;\r\n    \r\n    event AccountCreated(address indexed owner, string accountType, uint256 timestamp);\r\n    event DepositMade(address indexed to, uint256 amount, uint256 timestamp);\r\n    event WithdrawalMade(address indexed from, uint256 amount, uint256 timestamp);\r\n    event TransferMade(address indexed from, address indexed to, uint256 amount, uint256 timestamp);\r\n    \r\n    modifier accountExists() {\r\n        require(accounts[msg.sender].exists, \"Account does not exist\");\r\n        _;\r\n    }\r\n    \r\n    modifier notBlacklisted(address _address) {\r\n        require(!blacklistedAddresses[_address], \"Address is blacklisted\");\r\n        _;\r\n    }\r\n    \r\n    function createAccount(string memory _accountType, string memory _name) external notBlacklisted(msg.sender) {\r\n        require(!accounts[msg.sender].exists, \"Account already exists\");\r\n        \r\n        Account storage newAccount = accounts[msg.sender];\r\n        newAccount.exists = true;\r\n        newAccount.balance = 0;\r\n        newAccount.accountType = _accountType;\r\n        newAccount.name = _name;\r\n        newAccount.createdAt = block.timestamp;\r\n        newAccount.authorizedUsers[msg.sender] = true;\r\n        \r\n        emit AccountCreated(msg.sender, _accountType, block.timestamp);\r\n    }\r\n    \r\n    function deposit(uint256 _amount) external accountExists notBlacklisted(msg.sender) {\r\n        require(_amount > 0, \"Deposit amount must be greater than 0\");\r\n        accounts[msg.sender].balance += _amount;\r\n        emit DepositMade(msg.sender, _amount, block.timestamp);\r\n    }\r\n    \r\n    function withdraw(uint256 _amount) external accountExists notBlacklisted(msg.sender) {\r\n        require(_amount > 0, \"Withdrawal amount must be greater than 0\");\r\n        require(accounts[msg.sender].balance >= _amount, \"Insufficient balance\");\r\n        \r\n        accounts[msg.sender].balance -= _amount;\r\n        emit WithdrawalMade(msg.sender, _amount, block.timestamp);\r\n    }\r\n    \r\n    function transfer(address _to, uint256 _amount) external accountExists notBlacklisted(msg.sender) notBlacklisted(_to) {\r\n        require(_to != address(0), \"Invalid recipient address\");\r\n        require(accounts[_to].exists, \"Recipient account does not exist\");\r\n        require(_amount > 0, \"Transfer amount must be greater than 0\");\r\n        require(accounts[msg.sender].balance >= _amount, \"Insufficient balance\");\r\n        \r\n        accounts[msg.sender].balance -= _amount;\r\n        accounts[_to].balance += _amount;\r\n        emit TransferMade(msg.sender, _to, _amount, block.timestamp);\r\n    }\r\n    \r\n    function getBalance() external view accountExists returns (uint256) {\r\n        return accounts[msg.sender].balance;\r\n    }\r\n\r\n    function getAccount() external view accountExists returns (\r\n        string memory name,\r\n        uint256 balance,\r\n        string memory accountType,\r\n        uint256 createdAt\r\n    ) {\r\n        Account storage account = accounts[msg.sender];\r\n        return (\r\n            account.name,\r\n            account.balance,\r\n            account.accountType,\r\n            account.createdAt\r\n        );\r\n    }\r\n}",
  "sourcePath": "C:\\Users\\Pragya Sharma\\Desktop\\secure-paperless-banking-using-blockchain\\contracts\\banking.sol",
  "compiler": {
    "name": "solc",
    "version": "0.8.0+commit.c7dfd78e.Emscripten.clang"
  },
  "schemaVersion": "3.4.16",
  "updatedAt": "2024-11-10T05:45:48.734Z",
  "networkType": "ethereum",
  "devdoc": {
    "kind": "dev",
    "methods": {},
    "version": 1
  },
  "userdoc": {
    "kind": "user",
    "methods": {},
    "version": 1
  }
}